S01700004D6963726F6368697053747564696F2E73726563F7
S11300000C9434000C9430030C9451000C94510063
S11300100C9451000C9451000C9451000C94510018
S11300200C9451000C9451000C9451000C94510008
S11300300C9451000C9451000C9451000C945100F8
S11300400C9451000C9451000C94A9000C94510090
S11300500C9451000C9451000C9451000C945100D8
S11300600C9451000C94510011241FBECFEFD8E022
S1130070DEBFCDBF12E0A0E0B1E0E8EDFDE002C0DC
S113008005900D92A232B107D9F722E0A2E2B2E0C4
S113009001C01D92A139B207E1F70E94FB000C9444
S11300A0EA060C940000CF93C82F8A3019F48DE02F
S11300B00E9453008091C00085FFFCCFC093C6000E
S11300C080E090E0CF9108958091C0008823E4F708
S11300D08091C60090E00895CF92DF92EF92FF9254
S11300E0CF93DF936B017C01D42FC22F60E472E4C1
S11300F08FE090E0A70196010E945403215031093A
S11301003093C5002093C400DD2329F0E1ECF0E036
S1130110808188608083CC2341F0E1ECF0E0808131
S113012080618083808180688083E2ECF0E080815C
S113013086608083EBE8F2E080E091E09183808345
S113014093838283DF91CF91FF90EF90DF90CF90E4
S113015008951F920F920FB60F9211248F939F93BD
S1130160EF93FF938091C6008D3091F4E0912202C9
S1130170F0912302EA5DFD4F108281E090E09093BC
S1130180250280932402109223021092220216C0A8
S1130190E0912202F0912302EA5DFD4F8083809179
S11301A0220290912302C1974CF4809122029091F3
S11301B0230201969093230280932202FF91EF91F0
S11301C09F918F910F900FBE0F901F901895809163
S11301D02402909125020895F89466E272E00E9448
S11301E0CD03109225021092240210922302109241
S11301F022027894089521E041E060E875E280E00D
S113020090E00E946C00789486E191E00E94F203F1
S113021060E177E280E090E00E9424010E942C03D8
S1130220892B29F086E491E00E94F203FFCF0E941B
S1130230E700892B99F389E592E00E94EC0089E5B7
S113024092E00E94E302EACF8F929F92AF92BF9214
S1130250CF92DF92EF92FF926B017C0184B18260B6
S113026084B984B1846084B984B1806284B98AB168
S11302708B7F8AB985B18F7D85B98BB18B7F8BB923
S11302807894E9E6F0E08081836080838DB38160B7
S11302908DBBE0E8F0E0808182608083A1E8B0E07B
S11302A08C9188618C9380818F7B8083808180682E
S11302B0808380818F7E808380818F7D80838C91F9
S11302C0887F8C9360E074E284EF90E0A70196014C
S11302D00E9454032115310582E04807510550F46A
S11302E0E1E8F0E0808181608083812C912C5401CD
S11302F083943BC02115310589E04807510558F422
S1130300E1E8F0E0808182608083812C912C5401AB
S1130310689483F82AC02115310581E44807510502
S113032058F4E1E8F0E0808183608083812C912C93
S11303305401689486F819C0211531054140514093
S113034050F4E1E8F0E0808184608083812C912C7A
S1130350540193940AC0E1E8F0E0808185608083D1
S1130360812C912C5401689492F8809212019092FD
S11303701301A0921401B092150160E074E284EFBD
S113038090E0A70196010E945403CA01B901A50196
S113039094010E94540321503109E6E8F0E03183CE
S11303A0208380819181969587959093890080938D
S11303B08800808191819695879590938B00809396
S11303C08A00FF90EF90DF90CF90BF90AF909F9006
S11303D08F90089585B18F7D85B983E691E00E9461
S11303E0F20380E090E0089585B1806285B98CE6DF
S11303F091E00E94F20380E090E00895E0E8F0E0EC
S113040080818F73808380818F7E808380818062EE
S1130410808384E791E00E94F20380E090E00895F5
S1130420E0E8F0E080818F7B808380818068808336
S113043080818F7C80838DE891E00E94F20380E0CC
S113044090E008958F929F92AF92BF92CF92DF92E5
S1130450EF92FF920F931F93CF93DF93EC018536B6
S1130460910558F086EA91E09F938F930E94DC03F4
S11304700F900F908FEF9FEF40C06C01E12CF12C97
S1130480C0920E01D0920F01E0921001F09211017E
S113049006E810E0F801A081B181A70196010E944D
S11304A0A4030F2EF4E68F2E912CA12CB12CF02D49
S11304B0A50194010E94540330938900209388007D
S11304C0F801A081B181A70196010E94A403A501AE
S11304D094010E94540330938B0020938A00DF938D
S11304E0CF938CEC91E09F938F930E94DC030F9049
S11304F00F900F900F9080E090E0DF91CF911F91CB
S11305000F91FF90EF90DF90CF90BF90AF909F90AE
S11305108F900895CF92DF92EF92FF929C012A5020
S113052031092F3D334038F08EED91E00E94F20303
S11305308FEF9FEF43C09C0140E050E060E472E421
S11305408FE090E00E94760369017A012091120104
S113055030911301409114015091150160E074E24F
S113056084EF90E00E945403CA01B901A7019601E7
S1130570442755270E9454032150310930938700A2
S11305802093860080910E0190910F01A09110019B
S1130590B09111010E942202FF92EF92DF92CF925A
S11305A087E092E09F938F930E94DC030F900F905B
S11305B00F900F900F900F9080E090E0FF90EF90DD
S11305C0DF90CF900895FC0120812A33C9F5218161
S11305D0253449F018F42434E1F035C0203551F1C4
S11305E0233561F030C08281803319F40E94EA011E
S11305F00895813359F50E94F40108958281843469
S113060019F40E94FE010895893419F50E9410021C
S1130610089502960E94AF039C01ADECBCEC0E94CD
S113062095039695879596958795969587950E94B7
S11306302202089502960E94AF030E948A0208953E
S11306408FEF9FEF08958FEF9FEF08958FEF9FEF48
S113065008958FEF9FEF08958091580290E00895D8
S11306601F920F920FB60F9211248F93EF93FF9363
S1130670E0E8F0E080818F73808380818F7C8083C9
S113068085B18D7F85B985B18B7F85B985B18F7D26
S113069085B981E080935802FF91EF918F910F907B
S11306A00FBE0F901F901895A1E21A2EAA1BBB1B18
S11306B0FD010DC0AA1FBB1FEE1FFF1FA217B3072A
S11306C0E407F50720F0A21BB30BE40BF50B661F40
S11306D0771F881F991F1A9469F760957095809504
S11306E090959B01AC01BD01CF010895052E97FBA8
S11306F01EF400940E948D0357FD07D00E945403FA
S113070007FC03D04EF40C948D035095409530951E
S113071021953F4F4F4F5F4F089590958095709569
S113072061957F4F8F4F9F4F0895A29FB001B39F54
S1130730C001A39F700D811D1124911DB29F700DE6
S1130740811D1124911D08950E949503A59F900D6C
S1130750B49F900DA49F800D911D11240895FC0158
S113076088279927E89421912032E9F3293010F061
S11307702E30C8F32B3241F02D3239F4689404C082
S11307800E94D403820F911D219120532A30C0F37B
S11307901EF4909581959F4F0895FB01DC01019013
S11307A00D920020E1F708957AE0979F902D879F9E
S11307B0802D910D11240895A0E0B0E0E2EEF3E065
S11307C00C94C306AE014B5F5F4FFA0161917191C6
S11307D0AF0180918D0290918E020E942204E2E08A
S11307E00C94DF060F931F93CF93DF93E0918D0258
S11307F0F0918E02238121FF1BC08C01D0E0C0E068
S1130800F80181918F0160918D0270918E02DB015C
S11308101896ED91FC911997882331F00995892B4D
S113082079F3DFEFCFEFECCF8AE00995892B19F04C
S11308308FEF9FEF02C08D2F9C2FDF91CF911F91DF
S11308400F910895ABE0B0E0E8E2F4E00C94B30655
S11308506C017B018A01FC0117821682838181FF6E
S1130860CCC1CE0101963C01F6019381F70193FDC1
S1130870859193FF81917F01882309F4BAC1853260
S113088039F493FD859193FF81917F01853229F499
S1130890B60190E00E941906E7CF912C212C312C4F
S11308A0FFE1F315D8F08B3279F038F4803279F027
S11308B08332A1F4232D20611DC08D3261F0803379
S11308C069F4232D216016C0832D8260382EE32D18
S11308D0E4603E2E2AC0F32DF8601DC037FC2DC005
S11308E020ED280F2A3040F08E32B9F436FC81C155
S11308F0232D2064322E19C036FE06C08AE0989E4D
S1130900200D1124922E11C0EAE02E9E200D1124F8
S1130910222EF32DF0623F2E08C08C3621F4832D55
S11309208068382E02C0883641F4F70193FD859122
S113093093FF81917F018111B3CF982F9F7D9554AF
S1130940933028F40C5F1F4F9FE399830DC08336C7
S113095031F0833771F0833509F059C021C0F801B3
S1130960808189830E5F1F4F88248394912C5301C7
S113097013C02801F2E04F0E511CF801A080B18091
S113098036FE03C0692D70E002C06FEF7FEFC50132
S11309900E940E064C018201F32DFF773F2E16C0F4
S11309A0280122E0420E511CF801A080B18036FEDD
S11309B003C0692D70E002C06FEF7FEFC5010E9494
S11309C003064C01F32DF0683F2E820133FC1BC05B
S11309D0822D90E088169906B0F4B60180E290E08A
S11309E00E9419062A94F4CFF50137FC859137FE4D
S11309F081915F01B60190E00E94190621102A94AA
S1130A0021E0821A91088114910471F7E8C08436B8
S1130A1011F0893641F5F80137FE07C06081718114
S1130A20828193810C5F1F4F08C060817181072E02
S1130A30000C880B990B0E5F1F4FF32DFF763F2E92
S1130A4097FF09C090958095709561957F4F8F4F62
S1130A509F4FF0683F2E2AE030E0A3010E94550624
S1130A60882E861845C0853731F4232D2F7EB22E6B
S1130A702AE030E025C0932D997FB92E8F36C1F03E
S1130A8018F4883579F0B5C0803719F0883721F02B
S1130A90B0C0E92FE061BE2EB4FE0DC0FB2DF460A2
S1130AA0BF2E09C034FE0AC0292F2660B22E06C00C
S1130AB028E030E005C020E130E002C020E132E06F
S1130AC0F801B7FE07C060817181828193810C5F58
S1130AD01F4F06C06081718180E090E00E5F1F4F60
S1130AE0A3010E945506882E8618FB2DFF773F2E02
S1130AF036FE0DC0232D2E7FA22E891458F434FE09
S1130B000BC032FC09C0832D8E7EA82E05C0B82CE4
S1130B10A32C03C0B82C01C0B92CA4FE0FC0FE0145
S1130B20E80DF11D8081803321F49A2D997EA92E40
S1130B3009C0A2FE06C0B394B39404C08A2D86787B
S1130B4009F0B394A3FC11C0A0FE06C0B21488F44B
S1130B50280C922C9B180EC0B21460F4B60180E2EB
S1130B6090E00E941906B394F7CFB21418F42B182E
S1130B7002C0982C212CA4FE10C0B60180E390E0A2
S1130B800E941906A2FE17C0A1FC03C088E790E0EA
S1130B9002C088E590E0B6010CC08A2D867859F031
S1130BA0A1FE02C08BE201C080E2A7FC8DE2B60187
S1130BB090E00E941906891438F4B60180E390E0AD
S1130BC00E9419069A94F7CF8A94F301E80DF11D57
S1130BD08081B60190E00E9419068110F5CF222091
S1130BE009F442CEB60180E290E00E9419062A94EC
S1130BF0F6CFF6018681978102C08FEF9FEF2B9687
S1130C00E2E10C94CF06FC010590615070400110A4
S1130C10D8F7809590958E0F9F1F0895FC01615021
S1130C20704001900110D8F7809590958E0F9F1F0A
S1130C3008950F931F93CF93DF93FB01238121FD2D
S1130C4003C08FEF9FEF2CC022FF16C0468157814F
S1130C50248135814217530744F4A081B1819D0159
S1130C602F5F3F4F318320838C93268137812F5F01
S1130C703F4F3783268314C08B01EC01FB010084B2
S1130C80F185E02D0995892BE1F6D80116968D9111
S1130C909C911797019617969C938E931697CE0165
S1130CA0DF91CF911F910F910895FA01AA2728305F
S1130CB051F1203181F1E8946F936E7F6E5F7F4F25
S1130CC08F4F9F4FAF4FB1E03ED0B4E03CD0670FA1
S1130CD0781F891F9A1FA11D680F791F8A1F911DF4
S1130CE0A11D6A0F711D811D911DA11D20D009F444
S1130CF068943F912AE0269F11243019305D319386
S1130D00DEF6CF010895462F4770405D4193B3E06E
S1130D100FD0C9F7F6CF462F4F70405D4A3318F015
S1130D20495D31FD4052419302D0A9F7EACFB4E0C6
S1130D30A6959795879577956795BA95C9F700977E
S1130D406105710508959B01AC010A2E069457951F
S1130D50479537952795BA95C9F7620F731F841F76
S1130D60951FA01D08952F923F924F925F926F920C
S1130D707F928F929F92AF92BF92CF92DF92EF9227
S1130D80FF920F931F93CF93DF93CDB7DEB7CA1BA8
S1130D90DB0B0FB6F894DEBF0FBECDBF09942A88D3
S1130DA0398848885F846E847D848C849B84AA847B
S1130DB0B984C884DF80EE80FD800C811B81AA8108
S1130DC0B981CE0FD11D0FB6F894DEBF0FBECDBFD3
S10B0DD0ED010895F894FFCF32
S1130DD8000000030000000053006400000032001B
S1130DE800000100000042617272696F732052654D
S1130DF87474612031343130310A46726563756523
S1130E086E63696120496E696369616C3A203130A7
S1130E18206B487A2E00494D4158210A4861726472
S1130E282052657365742072657175657269646FA3
S1130E382E0D00454E413A204F666600454E413A14
S1130E48204F6E0053656E7469646F206465206773
S1130E5869726F3A204469726563746F0053656EF2
S1130E687469646F206465206769726F3A20496EFB
S1130E78766572736F00436F6D616E646F20446EA4
S1130E886E6E3A2046756572612064652072616EE3
S1130E98676F20302D31303025250A004475747968
S1130EA8204379636C653A20256425250A00436F3D
S1130EB86D616E646F20506E6E6E6E3A2046756575
S1130EC872612064652072616E676F2031302D3144
S1130ED8303030207573004E756576612066726512
S1130EE86375656E6369613A20256C7520487A0AD2
S1050EF80000F4
S9030000FC
